:1019E2002020202020200030302E303000573A00B6
:1019F200672000553A00543A0054656D703A202D24
:101A02002D2E2D20430048756D693A202D2D2E2D47
:101A12002025002045525220004E616D653A207803
:101A220078780049443A2032323278787878787877
:021A320078003A
:100F1500014700014100014200044300000000C1F7
:100F250005048F0000000004740000000004A00008
:100F3500000000047C00000000048600000000049E
:100F45009400000000602000000000000000000088
:100F5500000000000000000000000000000000008C
:100F6500000000000000000000014800C181048B62
:100F750000000000C104C10304BA0000000001BF65
:100F850000048200000000047800000000089800BA
:100F95000000000000000001800001ACFF01B1006D
:100FA500C100C10601810002B8000002B2000001C3
:100FB500BE0004AD7FFFFFFF04A6FFFFFFFF04B4E3
:100FC500FFFFFFFFC10202C2FFFF02C0FFFF013F9B
:040FD50000014000D7
:101DC1005389F0438901E4F58A758CDCC28DD28C8C
:051DD100D2A9D2AF22EF
:101DD600EF1FAC0670011E4C600A7D027CC7DCFE5C
:041DE600DDFC80ECB4
:011DEA0022D6
:10157900E4F536F535F534F533A2AF9207C2B3F584
:1015890036F535F534F533FBEBC394187480948044
:101599005038C2AFD2B300AF36AE35AD34AC3378C4
:1015A9000112055A8F368E358D348C3330B211EFD6
:1015B9002401F536E43EF535E43DF534E43CF533F4
:1015C900C2B300A20792AF0B80BEC2AFD2B300C2B2
:1015D900B300A20792AFE5345480FDED6010E53603
:1015E900F536E535F535E534F53474FFF533AF36C1
:0615F900AE35AD34AC3349
:0115FF0022C9
:101D9100E4FFEFC3940374809480500A30B202C30D
:071DA1002200000F80ECD3CB
:011DA8002218
:081C79007F907ED07D037C000A
:101C81008F2F8E2E8D2D8C2C782C74FF1205B2EC9B
:101C91004D4E4F600920B2F0121D9150EB22C3222C
:0818E1008F268E258D248C2337
:1018E9008F368E358D348C337F177EFC7D7F7C005F
:1018F900AB36AA35A934A833D31205334002D32213
:101909007FE87E037D807CFFAB36AA35A934A833F6
:10191900C312053350012274FFFFFEFDFCAB36AA4A
:0F19290035A934A833C31205337002D322C32269
:0B168100753B00AF32AE31AD30AC2F36
:10168C008F368E358D348C33AF3AAE39AD38AC37AE
:10169C00AB36AA35A934A833C31205334025E53639
:1016AC00953AFFE5359539FEE5349538FDE53395EA
:1016BC0037FCAB3EAA3DA93CA83BC31205335001F5
:1016CC0022C322C3E53A9536FFE5399535FEE53858
:1016DC009534FDE5379533FCAB3EAA3DA93CA83BC0
:0A16EC00C312053350028001C3222F
:060D47008B2C8A2D892E81
:100D4D001215798F328E318D308C2F1218E9500893
:100D5D00D203E478BFF6C322200418AF32AE31AD12
:100D6D0030AC2F788B1205D0D204C203E478BFF6D5
:100D7D00020E16788B1205878F3A8E398D388C3787
:100D8D00753E40753D4B753C4C121681506878BFD1
:100D9D00E6940074809480404A78BA1205878F3AA1
:100DAD008E398D388C37753EA0753D86753C011298
:100DBD001681402FAF32AE31AD30AC2F78BA12055F
:100DCD00D078BF06E6C39402748094804026AF327B
:100DDD00AE31AD30AC2F788B1205D0E478BFF6C2B2
:100DED00038026AF32AE31AD30AC2F78BA1205D0BC
:100DFD0078BF7601C322AF32AE31AD30AC2F788BD8
:100E0D001205D0E478BFF6C203121CB37882120526
:100E1D00D0AF32AE31AD30AC2FAB2CAA2DA92E12E6
:030E2D00056DD37D
:010E3000229F
:0810B900AF26AE25AD24AC23E7
:0810C1008F2F8E2E8D2D8C2C3B
:1010C900E4F533F532F531F530300136F534C3E561
:1010D90034940874809480501EAF2FAE2EAD2DAC81
:1010E9002CE53425E025E02400F582E43400F5837D
:1010F9001205DC053480D7C201AF2FAE2EAD2DAC61
:101109002C22AF2FAE2EAD2DAC2CE54825E025E0E5
:101119002400F582E43400F5831205DC0548C3E5B3
:10112900489408748094804003E4F548E4F534C396
:10113900E5349408748094805030E53425E025E046
:101149002400F582E43400F583E0FCA3E0FDA3E08C
:10115900FEA3E02533F533EE3532F532ED3531F5C1
:1011690031EC3530F530053480C5E47B08FAF9F8FF
:0B117900AF33AE32AD31AC30121B17AB
:011184002248
:101D2500E47880F67898F678AC76FF78B1F678782E
:0C1D35001205E800000000D200C20622E7
:060E31008B358A3689377B
:100E3700E4F53BF53AF539F538F53CC208F53DAB35
:100E470035AA36A937853C82758300120355FF7092
:100E570003020EE8B42E05D208020EE3EF3395E045
:100E6700FEC3EF9430EE648094804070D3EF9439E2
:100E7700EE64809480506530080BC3E53D9402749E
:100E87008094805057AB35AA36A937853C82758345
:100E970000120355FF3395E0FEEF24D0FFEE34FF39
:100EA700FE3395E0FDFCC004C005C006C007E47F23
:100EB7000AFEFDFCAB3BAA3AA939A838120408D0B0
:100EC70003D002D001D000EF2BF53BEE3AF53AED17
:100ED70039F539EC38F538300802053D053C020E86
:100EE70046200803E48004E53D70047F648008E53C
:100EF7003D640170107F0AFEFDFCAB3BAA3AA9399D
:0D0F0700A838020408AF3BAE3AAD39AC3853
:010F140022BA
:101C4C00300029C2007BFF7A1979E27D037F0212F2
:101C5C001CC67880E670087BFF7A1979E980067BD0
:0D1C6C00007A0079987D037F02121CC622C9
:100FE900121E59121E6978AD1205E87FFFFFFF78BE
:100FF900A61205E8FFFFFFFF78B41205E8FFFFFF1F
:10100900FFC20274FF78C2F608F678C0F608F678CF
:1010190081E6704F7BFF7A1979EF7D017F01121C00
:10102900C67B207D037F01121E357BFF7A1979F279
:101039007D097F01121CC67BFF7A1979F57D017F35
:1010490002121CC67BFF7A1979F87D097F02121CEE
:10105900C67B2E7D0E7F02121E35121D25121C4CD9
:101069000206467881E6640170277B2D7D087F01A1
:10107900121E357B2D7D0B7F01121E357B3A7D06B5
:101089007F02121E357B3A7D097F02121E35021638
:10109900007BFF7A1979FB7D017F01121CC67BFF5A
:1010A9007A1A79087D017F02121CC678BE76012260
:020A88008F2CB1
:100A8A00EF640E700E7881E664017003FF80167FB2
:100A9A00018012E52C640D70137881E664027003FC
:100AAA00FF80027F027881A607020FE97881E6605B
:100ABA0003020BEBD3E52C940974809480504D7893
:100ACA00ACE63395E0FEC364809480400E78B1E6CC
:100ADA009402748094804003020BEB7880E6C394FE
:100AEA0006748094804003020BEBE52C2430FDE66B
:100AFA00062498F8A6057880E62498F8E4F6C3EE6A
:100B0A0064809480400378B106020BE7AF2C7E0024
:100B1A00EF640F705C78ACE63395E0C36480948030
:100B2A004003020BEB7880E6FD701CC3ED9405745C
:100B3A008094804003020BEBE6062498F87630781E
:100B4A0080E62498F8E4F67880E6FDC3940674807B
:100B5A0094804003020BEB78ACA6057880E6062465
:100B6A0098F8762E7880E62498F8E4F678B1F6803C
:100B7A006CEF640A4E7014787C12058778A012050F
:100B8A00D078AD1205E87FFFFFFF22E52CFB7A0043
:100B9A00640B7003021D25EB640C4A70447880E6EE
:100BAA00603F2497F8E6FF788016E6FE2498F8E47A
:100BBA00F6BF2E0978AC76FF78B1F6802078ACE6DD
:100BCA00FF3395E0C3648094804012EED39F400DBA
:100BDA0078B1E6D3940074809480400116D200D292
:010BEA000604
:010BEB0022E7
:0D193800C3EF9BFFEE9AFEED99FDEC98FCCD
:081945008F388E378D368C358A
:10194D00E47F64FEFDFCAB38AA37A936A835120436
:10195D0008EC334010EF242EFFEE344FFEE43DFD36
:10196D00E43CFC8011C3EF942EFFEE944FFEED94FA
:10197D0000FDEC9400FCE47B5C7A9EF9F8021B17E9
:10064600121C4C121A8430061BC2067880E670060D
:10065600FFFEFDFC80097B007A007998120E317846
:10066600781205D02003030206F7121E6930020B2A
:100676007B207D037F01121E35C2027BFF7A1A7929
:10068600157D047F01121CC6E4FFFEFDFC78B41242
:100696000593C3120549701078A61205877878125B
:1006A6000593C3120549602D78B41205E8000000D1
:1006B60000787812058778A61205D0753903E4FB11
:1006C600FA7D0B7F02121C16753902E4FBFA7D0FC8
:1006D6007F02121C1678AD1205E87FFFFFFF7886B1
:1006E6001205E80000000078941205E800000000FA
:1006F6002278A0120593C000787C120587D00012DC
:10070600193878861205D074FFFFFEFDFC78861234
:100716000593C3120533401AE47F01FEFDFC78867B
:10072600120593D3120533500978861205E80000A6
:100736000000300502801DE47FE87E03FDFC78861C
:10074600120593D3120533400B7D327C007F1412C1
:100756001ACE8003121E697886120587EC33500282
:100766008001C3920778863007081205871205258F
:10077600800312058778941205D0A207300201B3D0
:1007860050143007047B2D80027B207D037F0112ED
:100796001E35A207920278AD120587788612059358
:1007A600C3120533601D7894120587AB07AA067538
:1007B60039057D047F01121C16788612058778ADEF
:1007C6001205D020072178781205877894120593B0
:1007D600120408E47BE87A03F9F81204938F308E4A
:1007E6002F8D2E8C2D8009E4F530F52FF52EF52D65
:1007F60078B4120587AB30AA2FA92EA82DC31205EF
:1008060049701078A61205877878120593C31205E9
:10081600496061AF30AE2FAD2EAC2D78B41205D045
:10082600787812058778A61205D0E47B64FAF9F881
:10083600AF30AE2FAD2EAC2D1204938E318F32E435
:100846007B64FAF9F8AF30AE2FAD2EAC2D120493BF
:10085600AE02AF038E338F34753903AB32AA317DC6
:100866000B7F02121C16753902AB34AA337D0F7F3B
:0408760002121C1638
:01087A00225B
:10182700121A8430031478861205E8000000007845
:10183700941205E800000000804178A0120593C0CB
:1018470000787C120587D00012193878861205D0E7
:1018570074FFFFFEFDFC7886120593C31205334023
:101867001AE47F01FEFDFC7886120593D312053337
:0E187700500978861205E800000000121E6974
:011885002240
:101600001213BEE56024D0FFE43407FE78A4F6FA96
:1016100008EFF6FB7893A66178AAA66208A663781D
:101620008AA6647873A6657539047D047F01121C4F
:10163000167893E6FB7A007539027D097F01121C4A
:101640001678AAE6FB7A007539027D0C7F01121C20
:101650001678ABE6FB7A007539027D047F02121C16
:1016600016788AE6FB7A007539027D077F02121C24
:10167000167873E6FB7A007539027D0A7F02021C38
:011680001653
:1011850078BEE67003760122E478BEF6F52F753059
:10119500007531B2FB7A0079B812124E79B9E77849
:1011A500C366700419E71866604878B8E6FE08E675
:1011B500FF78C2A60608A6077C007D0A120394AA3A
:1011C50006AB077539027D077F01121C167B2E7D44
:1011D500097F01121E3578B8E6FE08E6FF7C007D22
:1011E5000A120394AA04AB057539017D0A7F011221
:1011F5001C1679B3E778C166700419E7186660486C
:1012050078B2E6FE08E6FF78C0A60608A6077C00C9
:101215007D0A120394AA06AB077539027D077F0282
:10122500121C167B2E7D097F02121E3578B2E6FE52
:1012350008E6FF7C007D0A120394AA04AB05753904
:09124500017D0A7F02121C162231
:101CA1001205D0AF26AE25AD24AC23788B1205D01A
:021CB100D2045B
:101CB300A2AF9208C2AFAF46AE45AD44AC43A20853
:021CC30092AFDE
:011CC50022FC
:101A8400121CB38F388E378D368C3530042578820E
:101A9400120593C3E5389BFFE5379AFEE53699FDB9
:101AA400E53598FCE47B32FAF9F8D312054950196C
:101AB400D20322E47F32FEFDFCAB38AA37A936A854
:091AC40035C31205494002D203AA
:011ACD0022F6
:08000300121CB3788F0205D036
:0C1E0900200508D205121E69121E592285
:081E5100C205120FE9020003B3
:10087B00C2B3121E66121D777BFF7A1A791B7D019C
:10088B007F01121CC67BFF7A1A79257D017F02122C
:10089B001CC6E4FBEBC3940374809480500A7FE87E
:1008AB007E03121DD60B80EC121E617FC01216FE4A
:1008BB00EF64AA601F121307E4FD7F8E1217637D8E
:1008CB00AA7FC01217637D807F8E1217637FF47E21
:1008DB0001121DD6121DC1121C7950251215791249
:1008EB0018E15004D203801B1210B978A01205D066
:1008FB0078A0120587787C121CA178821205D08013
:10090B0002D203E4F522C3E522940A74809480504A
:10091B002E121C7950291215791218E15004D203AA
:10092B00801D1210B9787C1205D0787C120587785F
:10093B00A0121CA178821205D0C203052280C7E445
:10094B007881F6120FE9C205AF46AE45AD44AC4314
:0F095B00788F1205D0787C12058778741205D03A
:10096A00854727E52765477003020A120527121DE6
:10097A00418F22EF6463600E300503121E51AF22CD
:10098A00120A881200037881E6706F121D91506A6C
:10099A007B007A007923120D47505F1210B9787CD8
:0309AA001205D063
:1009AD007874120593C000787C120587D000C3EFD0
:1009BD009BF52BEE9AF52AED99F529EC98F528E49F
:1009CD007F207E03FDFCAB2BAA2AA929A828D312D0
:1009DD00053350107FE07EFC7DFF7CFFA828C312FD
:1009ED0005335013787C12058778741205D03005C5
:0709FD0003121E511200035A
:100A04007881E6600302096D121A8402096DE541DA
:100A1400601415417881E670F530050512182780B9
:100A2400ED12064680E8E542601D15422005F77880
:100A340081E66401700512160080EB7881E6640299
:0D0A440070E412118580DF30050302096D9A
:100A5100121CB38F2B8E2A8D298C28788F12059327
:100A6100C3E52B9BFFE52A9AFEE52999FDE5289828
:100A7100FCE47BF47A01F9F8D31205494003020939
:040A81006D121E09CB
:030A850002096DF6
:03000B000217C613
:0F17C600C0E0C0D075D000C004C005C006C00789
:1017D500758A00758CDC0547AF46AE45AD44AC4314
:1017E500EF2401F546E43EF545E43DF544E43CF5DA
:1017F50043053F0540C3E53F94147480948040053C
:10180500753F000541C3E5409432748094804005DE
:051815007540000542D2
:0D181A00D007D006D005D004D0D0D0E032E9
:101DA900000000010000000A00000064000003E8D0
:081DB90000002710000186A0C4
:061E1500C2A58F80D2A7D8
:041E1B007F14DFFE53
:011E1F0022A0
:081E3F007F047E92DEFEDFFC51
:011E47002278
:0A1E2B00C2A6121E15C2A7021E1B5C
:101D5D00120493E47B0AFAF9F8120493EB2430FF92
:0A1D6D00D2A6121E15C2A7021E1B0B
:101CE900AE07EEFB7A0064017004ED148009EB6421
:0E1CF900024A7009ED243F4480FF121E2B2288
:101D77007F38121E2B7F0C121E2B7F06121E2B7F05
:0A1D870001121E2B121E3FD2A322F0
:0A1E3500AC03121CE9AF04021D6D9E
:061CC6008B358A368937D8
:101CCC00121CE9E4FEAB35AA36A9378E8275830067
:0C1CDC00120355FF6006121D6D0E80E91A
:011CE80022D9
:041BD9008F598D5A39
:101BDD00E4755F01F55EF55DF55CF55BE55BC39561
:101BED005A501DAB5FAA5EA95DA85CAF59E4FCFD20
:101BFD00FE1204088F5F8E5E8D5D8C5C055B80DC54
:081C0D00AF5FAE5EAD5DAC5CA3
:011C150022AC
:041C16008A378B3846
:101C1A00121CE985393AD3E53A94007480948040DD
:101C2A0020AE37AF38E4FCFDE53A25E025E024A5EF
:101C3A00F582E4341DF5831205A0121D5D153A8064
:011C4A00D5C4
:011C4B002276
:041886008B828A8344
:10188A00121CE9C3E58364809480400D7F2B121DEE
:10189A006D85834F85825080107F2D121D6DC3E4A4
:1018AA009582F550E49583F54F854D4ED3E54E94D8
:1018BA000074809480401FE54E14FD7F0A121BD9E4
:1018CA00A804A905AA06AB07AE4FAF50E4FCFD1267
:0618DA001D5D154E80D6D5
:0118E00022E5
:041A34008A698B6AC6
:101A3800121CE9856B6CD3E56C940074809480402B
:101A48003AE56C14FD7F10121BD9A804A905AA0653
:101A5800AB07AE69AF6AE4FCFD120493EF540FFFC5
:101A6800AE07EEC3940A74809480EE50042430804C
:0B1A7800022437FF121D6D156C80BBAF
:011A83002240
:041B5B008A6F8B7092
:101B5F00121CE9857172D3E57294007480948040F1
:101B6F002AE57214FD7F02121BD9A804A905AA0643
:101B7F00AB07AE6FAF70E4FCFD120493EF5401FF9F
:0B1B8F00EF2430FF121D6D157280CB9B
:011B9A002228
:04198D008F518D5297
:10199100E4F558E558C395575046C3E5579558FFA8
:1019A100E49400FE901DA575F004EF120601EE25EA
:1019B100E025E02583F5831205A0AF56AE55AD5461
:1019C100AC53120493E47B0AFAF9F8120493EB2462
:1019D10030FBE5522558FDAF51121E35055880B335
:0119E10022E3
:040BEC008F088D09D8
:100BF000E4F51DE5106003751D01E4FFFEFDFCAB8F
:100C00000DAA0CA90BA80A12020C400FE510602BCC
:100C10007B2BAD09AF08121E358020E51060097BE3
:100C20002DAD09AF08121E35AF0DAE0CAD0BAC0AE1
:100C30001202858F0D8E0C8D0B8C0AAF0DAE0CAD94
:100C40000BAC0A1202D48F188E178D168C15AF0DAF
:100C5000AE0CAD0BAC0AC004C005C006C007AF188F
:100C6000AE17AD16AC15E4120296A804A905AA06A3
:100C7000AB07D007D006D005D0041200118F0D8E1F
:100C80000C8D0B8C0AAD0F7F0A121BD98F148E139B
:100C90008D128C11E4120296AB0DAA0CA90BA80AB6
:100CA000120106E4FBFA792078411201061202D4FF
:100CB0008F1C8E1B8D1A8C19E51C2405F51CE43540
:100CC0001BF51BE4351AF51AE43519F519AF1CAEFE
:100CD0001BAD1AFCE47B0AFAF9F81204938F1C8E00
:100CE0001B8D1A8C19AB14AA13A912A81112049304
:100CF000E5182FF518E5173EF517E5163DF516E54D
:100D0000153CF515E509251DFD85185685175585F2
:100D10001654851553850E57AF0812198DE5092510
:100D20000E251DFD7B2EAF08121E35E509250E048C
:100D3000251DFD851C56851B55851A54851953851F
:070D40000F57AF0802198DE7
:081E59007F01121E2B021E3F47
:0D1DFC00EF60047F0E80027F0C121E2B2270
:091E4800EF6003D2A322C2A32221
:060FD900011E00011F00D3
:10145E00E4FFC297C296C295C294D293D292D29111
:10146E00D290309309309206309103209070C2973B
:10147E00D296D295D2942093027F072092027F08B3
:10148E002091027F092090027F0AD297C296D295B0
:10149E00D2942093027F042092027F052091027F36
:1014AE00062090027F0BD297D296C295D2942093AB
:1014BE00027F012092027F022091027F0320900280
:1014CE007F0CD297D296D295C2942093027F0E2093
:0E14DE009202E4FF2091027F0F2090027F0D0A
:0114EC0022DD
:101D410012145EEF600EB51E09051FE51F640270D7
:0B1D510006228000E4F51F8F1E7F6358
:011D5C002264
:090FDF0007601A01050E1E000155
:051E6100C2B5C2B6226B
:0317600025F0FD74
:02176300A907D4
:10176500D2B5E4FBEBC394087480948050227E00CC
:101775007401A803088005C333CE33CED8F9FFE939
:10178500F582EF558224FF92B4D2B6C2B60B80D44F
:10179500E4FBEBC394087480948050227E007401AE
:1017A500A803088005C333CE33CED8F9FFEDF58203
:1017B500EF558224FF92B4D2B6C2B60B80D4C2B51F
:0117C5002201
:0816F600C4540F75F00AA4FCB6
:0216FE00AD0736
:10170000E4F9430501D2B5FBEBC3940874809480DF
:1017100050227E007401A803088005C333CE33CE67
:10172000D8F9FFEDF582EF558224FF92B4C2B6D20C
:10173000B60B80D4D2B4E4FBEBC3940874809480DD
:101740005017D2B6C2B630B40DA803740108800297
:0F175000C333D8FC42010B80DFC2B5C2B4AF0176
:01175F002267
:10130700E4FD7F8E121763E56075F00A84C454F01C
:10131700FFE56075F00A84EF7F8C121760E5617551
:10132700F00A84C454F0FFE56175F00A84EF7F8802
:10133700121760E56275F00A84C454F0FFE5627520
:10134700F00A84EF25F0FD7F86121763E56375F0D9
:101357000A84C454F0FFE56375F00A84EF25F0FDB5
:101367007F84121763E56475F00A84C454F0FFE5BF
:101377006475F00A84EF25F0FD7F82121763E56537
:1013870075F00A84C454F0FFE56575F00A84EF250B
:10139700F0FD7F80121763E56675F00A84C454F088
:1013A700FFE56675F00A84EF25F0FD7F8A12176363
:0713B7007D807F8E021763A9
:1013BE007F8C1216FEEF7F8C1216F6EF540F2CF563
:1013CE00607F881216FEEF7F881216F6EF540F2CF0
:1013DE00F5617F861216FEEFC4540F75F00AA4FC59
:1013EE007F861216FEEF540F2CF5627F841216FEC6
:1013FE00EFC4540F75F00AA4FC7F841216FEEF544E
:10140E000F2CF5637F821216FEEFC4540F75F00A8F
:10141E00A4FC7F821216FEEF540F2CF5647F80120F
:10142E0016FEEFC4540F75F00AA4FC7F801216FE50
:10143E00EF540F2CF5657F8A1216FEEFC4540F750C
:10144E00F00AA4FC7F8A1216FEEF540F2CF56622CA
:031E6600C2A522F0
:031E6900C2A522ED
:0B1E2000AE071FEE6004000080F622F9
:021ACE008F3552
:101AD000AE04AF057C007D6412060DC007AF35ABC8
:101AE00007E4FAF9F8D0071204938F398E388D374E
:101AF0008C36900000AF82AE83E4FCFDAB39AA388F
:101B0000A937A836D3120549400AB2A5AF35121E2F
:061B100020A380E1C2A544
:011B160022AC
:101D0700D3EF9400EE940040147D6E7C00ED1D70BF
:0D1D1700011CED4C70F7EF1F70E61E80E31D
:011D2400229C
:061DEB00121DF1121DF1B2
:0B1DF1000000000000000000000022C5
:101B9B00E4FFFEEEC39408748094805030EF25E090
:101BAB00FFE4FD20A20B0DEDD39464748094804070
:101BBB00F2121DEB30A213430701E4FD30A20B0D13
:0D1BCB00EDD394647480948040F20E80C6C7
:011BD80022EA
:06124E008B2C8A2D892E75
:10125400E4FBD2A200C2A27F14FE121D07D2A21286
:101264001DEB30A20302130520A20B0BC3EB946405
:101274007480948040F2E4FB30A20B0BC3EB9464C3
:101284007480948040F2C2AF121B9BAC07121B9B6C
:10129400AB07121B9B8F32121B9B8F33121B9BA914
:1012A40007D2AF121DF1D2A2EBFFEC2FFFE433FE05
:1012B400E5327583002FFFE5833EFEE5332FFFE51E
:1012C400833EFEE96F7001EE7037AF04FEFC7D0AC9
:1012D400120382AD03EF2DFFEC3EAB2FAA30A931F0
:1012E4008FF01203E9AF327E007D0A120382EF25EC
:1012F40033FFEC3EAB2CAA2DA92E8FF01203E9D3B9
:0213040022C302
:0113060022C4
:031E6C00D2A222DD
:10000E00020340E86480F8E933E83360110460F0DD
:10001E00ED33EC337009E8FCE9FDEAFEEBFF220458
:10002E0060DED3EB9FEA9EE99DE8C2E78CF0C2F753
:10003E0095F0400CE8CCF8E9CDF9EACEFAEBCFFB1F
:10004E0012030B85D0F05804700320D5B3E804706A
:10005E00075002B2D502034A92D5EC0460F7E4CC05
:10006E00C0E0C398F8603B94186008400DD0E0FBE8
:10007E00020322E4FBFAC9FC8028E830E406E4C956
:10008E00FBE4CAFCE830E305E4C9CACBFCE854073C
:10009E006010F8C3E913F9EA13FAEB13FBEC13FC47
:1000AE00D8F130F52FC3E49CFCEF9BFFEE9AFEEDEA
:1000BE0099FDD0E0FBEF4E4D4C701222DB03020394
:1000CE0047EC2CFCEF33FFEE33FEED33FDED30E766
:1000DE00EB020322EF2BFFEE3AFEED39FDD0E0FBF3
:1000EE0050130BBB000302034AED13FDEE13FEEF9C
:0800FE0013FFEC13FC020322C6
:10010600EC4D6011E8497017ED33EC3304600DE4F3
:10011600FCFFFEFD22E933E8330470F802034012C7
:10012600030B58046009E4CC2481500628500902C8
:10013600034A284003020347C0E0EB4A7044B980F3
:1001460006D0E0FB020336EF4E701CBD8008EBFFC5
:10015600EAFEE9FD80EBE98DF0A4FEE5F00201EF91
:10016600E9CDF9EAFEEBFFEF89F0A4FCE5F0CE89D4
:10017600F0A42EFFE435F0CD89F0A42DFEE435F091
:100186008067EF4E7005BD80D780C3EF8BF0A4ACBF
:10019600F0EE8BF0A42CFCE435F0F8EF8AF0A42CFA
:1001A600E5F038FCE433CB8DF0A42CFCE5F03BF80D
:1001B600EE8AF0A42CFCE5F038F8E433CF89F0A4FD
:1001C6002CFCE5F038CF3400CE89F0A42FFFE5F003
:1001D6003EFEE433C98DF0A42EFEE5F039CD8AF05B
:1001E600A42FFFE5F03EFEE43DFD33D0E0FB5007D3
:1001F6000BBB000F02034AEC2CFCEF33FFEE33FE81
:06020600ED33FD020322AE
:10020C0074F8CC6480CCC86480C8F58204604FC399
:10021C00EB9FF5F0EA9E42F0E99D42F0E89C45F038
:10022C00603C501DE5825FFFE582D313CB5BCBF4C2
:10023C002B5582FB50280ABA002409B900200880EB
:10024C001DE5825BFBE582D313CF5FCFF4C3132F85
:10025C005582FF50090EBE00050DBD00010CC3EB0D
:10026C009FF5F0EA9E42F0E99D42F0E89C45F06073
:09027C0007CC4820E701B3EC2295
:10028500ED33EC33600A047003BD8004ECB2E7FC87
:010295002246
:1002960075F020800E75F010800575F0087D007EE3
:1002A600007F003392D530D503120525EC3340107C
:1002B600EF33FFEE33FEED33FDEC33FCD5F0ED22EC
:0E02C600E5F0247EA2D513CC92E7CDCEFF2228
:1002D400EDD2E7CD33EC3392D524814006E4FFFE22
:1002E400FDFC22FCE4CFCECDCC24E0501174FF8081
:1002F400EDC3CC13CCCD13CDCE13CECF13CF04701E
:07030400F030D5DE020525F3
:10030B00E9D2E7C933E833F892D5EDD2E7CD33EC38
:07031B0033FC5002B2D522B1
:10032200EC30E7100FBF000C0EBE00080DBD00043C
:100332000BEB6014A2D5EB13FCED92E7FD2274FFE8
:10034200FCFDFEFF22E480F8A2D574FF13FC7D8041
:03035200E480EF55
:030000000214EDFA
:0C14ED00787FE4F6D8FD7581C302153449
:10035500BB010CE58229F582E5833AF583E022505D
:1003650006E92582F8E622BBFE06E92582F8E222A7
:0D037500E58229F582E5833AF583E49322C1
:10038200EF8DF0A4A8F0CF8CF0A428CE8DF0A42E8F
:02039200FE2249
:10039400BC000BBE0029EF8DF084FFADF022E4CC4D
:1003A400F875F008EF2FFFEE33FEEC33FCEE9DEC16
:1003B400984005FCEE9DFE0FD5F0E9E4CEFD22ED5C
:1003C400F8F5F0EE8420D21CFEADF075F008EF2FA6
:1003D400FFED33FD4007985006D5F0F222C398FD97
:0503E4000FD5F0EA2234
:1003E900BB010A89828A83F0E5F0A3F0225006F75F
:0F03F90009A7F01922BBFE06F3E5F009F319225C
:10040800E88FF0A4CC8BF0A42CFCE98EF0A42CFC93
:100418008AF0EDA42CFCEA8EF0A4CDA8F08BF0A411
:100428002DCC3825F0FDE98FF0A42CCD35F0FCEB70
:100438008EF0A4FEA9F0EB8FF0A4CFC5F02ECD3935
:0F044800FEE43CFCEAA42DCE35F0FDE43CFC22A2
:1004570075F008758200EF2FFFEE33FECD33CDCC5C
:1004670033CCC58233C5829BED9AEC99E5829840DF
:100477000CF582EE9BFEED9AFDEC99FC0FD5F0D6BC
:10048700E4CEFBE4CDFAE4CCF9A88222B800C1B9E6
:100497000059BA002DEC8BF084CFCECDFCE5F0CB24
:1004A700F97818EF2FFFEE33FEED33FDEC33FCEB5D
:1004B70033FB10D703994004EB99FB0FD8E5E4F918
:1004C700FA227818EF2FFFEE33FEED33FDEC33FC05
:1004D700C933C910D7059BE99A4007EC9BFCE99AF9
:1004E700F90FD8E0E4C9FAE4CCFB2275F010EF2F3E
:1004F700FFEE33FEED33FDCC33CCC833C810D7073E
:100507009BEC9AE899400AED9BFDEC9AFCE899F878
:0E0517000FD5F0DAE4CDFBE4CCFAE4C8F9220B
:101B1700C2D5E830E70FB2D5E4C39BFBE49AFAE4F9
:101B270099F9E498F8EC30E717B2D5121B4D120477
:101B370093E4C39BFBE49AFAE499F9E498F88003E9
:101B470012049330D50DE4C39FFFE49EFEE49DFD90
:041B5700E49CFC22EC
:0E052500C3E49FFFE49EFEE49DFDE49CFC22E7
:10053300EB9FF5F0EA9E42F0E99D42F0EC6480C83F
:0605430064809845F022DF
:10054900EB9FF5F0EA9E42F0E99D42F0E89C45F008
:01055900227F
:10055A00E8600FEFC333FFEE33FEED33FDEC33FCFF
:03056A00D8F122A3
:10056D00BB010789828A830205DC5005E9F8020583
:0A057D00D0BBFE05E9F802063A22A1
:0C058700E6FC08E6FD08E6FE08E6FF22A0
:0D059300E6FB08E6F908E6FA08E6CBF822D8
:1005A000E493F8740193F9740293FA740393FB22B1
:1005B0007401FF3395E0FEFDFC080808E6CF2FF636
:1005C00018E6CE3EF618E6CD3DF618E6CC3CF6220F
:0C05D000ECF608EDF608EEF608EFF62257
:0C05DC00ECF0A3EDF0A3EEF0A3EFF02292
:1005E800D083D082E493F608740193F608740293DA
:0905F800F608740393F674047311
:0C060100A42582F582E5F03583F5832204
:10060D00EC8EF0A4CCC5F0CCCDF8EFA4CEC5F02D7A
:10061D00FDE43CFCE8A42EC8C5F03DFDE43CFCEF38
:0D062D00A4FFE5F028FEE43DFDE43CFC22C6
:1014F90002087BE493A3F8E493A34003F68001F286
:1015090008DFF48029E493A3F85407240CC8C333F3
:10151900C4540F4420C8834004F456800146F6DFC2
:10152900E4800B0102040810204080900F15E47E2E
:10153900019360BCA3FF543F30E509541FFEE493B7
:10154900A360010ECF54C025E060A840B8E493A37E
:10155900FAE493A3F8E493A3C8C582C8CAC583CAA9
:10156900F0A3C8C582C8CAC583CADFE9DEE780BE61
:010FE8000008
:0C063A00ECF208EDF208EEF208EFF222FC
:00000001FF
