:101829002020202020200030302E303000573A0070
:10183900672000553A00543A0054656D703A202DDE
:101849002D2E2D20430048756D693A202D2D2E2D02
:101859002025004E616D653A207878780049443A30
:0C18690020323232787878787878780075
:100FB100014500013F00014000044100000000C163
:100FC10004048900000000047200000000049A007B
:100FD100000000047A00000000048000000000040A
:100FE1008E000000006020000000000000000000F2
:100FF10000000000000000000000000000000000F0
:10100100000000000000000000014600C1810485CD
:1010110000000000C10304760000000008920000F7
:10102100000000000000017E0001A6FF01AB00C12D
:1010310000C105017F0002B2000002AC000001B452
:101041000004A77FFFFFFF04A0FFFFFFFF04AEFF27
:10105100FFFFFFC10202B7FFFF02B5FFFF013D0025
:03106100013E004D
:101B9E005389F0438901E4F58A758CDCC28DD28CB1
:051BAE00D2A9D2AF2214
:101BB300EF1FAC0670011E4C600A7D027CC7DCFE81
:041BC300DDFC80ECD9
:011BC70022FB
:10144C00E4F532F531F530F52FA2AF9206C2B3F5C3
:10145C0032F531F530F52FFBEBC394187480948082
:10146C005038C2AFD2B300AF32AE31AD30AC2F7802
:10147C000112055A8F328E318D308C2F30B211EF14
:10148C002401F532E43EF531E43DF530E43CF52F32
:10149C00C2B300A20692AF0B80BEC2AFD2B300C2E1
:1014AC00B300A20692AFE5305480FDED6010E5323A
:1014BC00F532E531F531E530F53074FFF52FAF320B
:0614CC00AE31AD30AC2F83
:0114D20022F7
:101B5700E4FFEFC3940374809480500A30B202C349
:071B67002200000F80ECD307
:011B6E002254
:081A64007F907ED07D037C0021
:101A6C008F328E318D308C2F782F74FF120598ECBD
:101A7C004D4E4F600920B2F0121B5750EB22C3227F
:1017DA008F328E318D308C2F7F177EFC7D7F7C007F
:1017EA00AB32AA31A930A82FD31205334002D32233
:1017FA007FE87E037D807CFFAB32AA31A930A82F17
:10180A00C312053350012274FFFFFEFDFCAB32AA5E
:0F181A0031A930A82FC31205337002D322C32285
:101B8700121A64400E300305788502056DE4FFFEE6
:071B9700FDFC2212144C2298
:1011E400121B878F2E8E2D8D2C8C2B1217DA5011FB
:1011F400300305788502056DAF2EAE2DAD2CAC2BDA
:1012040022200311AF2EAE2DAD2CAC2B7885120508
:10121400B6D203806F788512056DAB2EAA2DA92C4A
:10122400A82BD312053340267885120579C3E52E01
:101234009BFFE52D9AFEE52C99FDE52B98FC7B4060
:101244007A4B794C7800C3120533502B802478856F
:1012540012056DC3EF952EFFEE952DFEED952CFD39
:10126400EC952BFC7B407A4B794C7800C312053308
:101274005005788502056DAF2EAE2DAD2CAC2B78C4
:0C128400851205B6AF2EAE2DAD2CAC2BA4
:01129000223B
:080E1C008F258E248D238C220A
:080E24008F2E8E2D8D2C8C2BDE
:100E2C00E4F532F531F530F52F300136F533C3E505
:100E3C0033940874809480501EAF2EAE2DAD2CAC24
:100E4C002BE53325E025E02400F582E43400F5831E
:100E5C001205C2053380D7C201AF2EAE2DAD2CAC1E
:100E6C002B22AF2EAE2DAD2CAC2BE54625E025E08C
:100E7C002400F582E43400F5831205C20546C3E56F
:100E8C00469408748094804003E4F546E4F533C33B
:100E9C00E5339408748094805030E53325E025E0E8
:100EAC002400F582E43400F583E0FCA3E0FDA3E02C
:100EBC00FEA3E02532F532EE3531F531ED3530F566
:100ECC0030EC352FF52F053380C5E47B08FAF9F8A3
:0B0EDC00AF32AE31AD30AC2F12190266
:010EE70022E8
:101AEB00E4787EF67892F678A676FF78ABF6787681
:0C1AFB001205CE00000000D200C205223F
:060C68008B348A35893649
:100C6E00E4F53AF539F538F537F53BC207F53CAB07
:100C7E0034AA35A936853B82758300120355FF7061
:100C8E0003020D1FB42E05D207020D1AEF3395E0A5
:100C9E00FEC3EF9430EE648094804070D3EF9439AD
:100CAE00EE64809480506530070BC3E53C9402746B
:100CBE008094805057AB34AA35A936853B82758314
:100CCE0000120355FF3395E0FEEF24D0FFEE34FF04
:100CDE00FE3395E0FDFCC004C005C006C007E47FEE
:100CEE000AFEFDFCAB3AAA39A938A837120408D07F
:100CFE0003D002D001D000EF2BF53AEE3AF539EDE4
:100D0E0039F538EC38F537300702053C053B020C57
:100D1E007D200703E48004E53C70047F648008E5D1
:100D2E003C640170107F0AFEFDFCAB3AAA39A9386B
:0D0D3E00A837020408AF3AAE39AD38AC3723
:010D4B002285
:101A3700300029C2007BFF7A1879297D037F0212C3
:101A47001A8C787EE670087BFF7A18793080067BDF
:0D1A5700007A0079927D037F02121A8C2222
:100D4C00121C49121C5978A71205CE7FFFFFFF78A1
:100D5C00A01205CEFFFFFFFF78AE1205CEFFFFFFFE
:100D6C00FFC20274FF78B7F608F678B5F608F67885
:100D7C007FE6704F7BFF7A1879367D017F01121A5E
:100D8C008C7B207D037F01121C257BFF7A1879391F
:100D9C007D097F01121A8C7BFF7A18793C7D017FCB
:100DAC0002121A8C7BFF7A18793F7D097F02121A86
:100DBC008C7B2E7D0E7F02121C25121AEB121A3719
:100DCC00020804787FE6640170277B2D7D087F0183
:100DDC00121C257B2D7D0B7F01121C257B3A7D0679
:100DEC007F02121C257B3A7D097F02121C250214FE
:100DFC00D37BFF7A1879427D017F01121A8C7BFF1D
:100E0C007A18794F7D017F02121A8C78B476012200
:0209A9008F2B92
:1009AB00EF640E700E787FE664017003FF80167F94
:1009BB00018012E52B640D7013787FE664027003DF
:1009CB00FF80027F02787FA607020D4C787FE660DE
:1009DB0003020B0CD3E52B940974809480504D7853
:1009EB00A6E63395E0FEC364809480400E78ABE6B8
:1009FB009402748094804003020B0C787EE6C394BF
:100A0B0006748094804003020B0CE52B2430FDE62A
:100A1B00062492F8A605787EE62492F8E4F6C3EE57
:100A2B0064809480400378AB06020B08AF2B7E00EA
:100A3B00EF640F705C78A6E63395E0C36480948016
:100A4B004003020B0C787EE6FD701CC3ED9405741D
:100A5B008094804003020B0CE6062492F8763078E3
:100A6B007EE62492F8E4F6787EE6FDC39406748065
:100A7B0094804003020B0C78A6A605787EE606242C
:100A8B0092F8762E787EE62492F8E4F678ABF68030
:100A9B006CEF640A4E7014787A12056D789A120511
:100AAB00B678A71205CE7FFFFFFF22E52BFB7A005E
:100ABB00640B7003021AEBEB640C4A7044787EE60D
:100ACB00603F2491F8E6FF787E16E6FE2492F8E468
:100ADB00F6BF2E0978A676FF78ABF6802078A6E6CF
:100AEB00FF3395E0C3648094804012EED39F400D9A
:100AFB0078ABE6D3940074809480400116D200D278
:010B0B0005E4
:010B0C0022C6
:0D16E000C3EF9BFFEE9AFEED99FDEC98FC28
:0816ED008F378E368D358C34E9
:1016F500E47F64FEFDFCAB37AA36A935A834120495
:1017050008EC334010EF242EFFEE344FFEE43DFD90
:10171500E43CFC8011C3EF942EFFEE944FFEED9454
:1017250000FDEC9400FCE47B5C7A9EF9F80219025A
:10080400121A3730051BC205787EE67006FFFEFD1E
:10081400FC80097B007A007992120C6878761205C4
:10082400B6789A120579C000787A12056DD0001254
:1008340016E078801205B674FFFFFEFDFC78801286
:100844000579C3120533401AE47F01FEFDFC78806C
:10085400120579D3120533500978801205CE0000B1
:100864000000300402801DE47FE87E03FDFC7880F4
:10087400120579D3120533400B7D327C007F1412AC
:1008840018758003121C59788012056DEC335002E0
:100894008001C39206788030060812056D12052582
:1008A400800312056D788E1205B6A206300201B3DC
:1008B40050143006047B2D80027B207D037F0112BF
:1008C4001C25A206920278A712056D78801205797C
:1008D400C3120533601D788E12056DAB07AA067529
:1008E40038057D047F01121A01788012056D78A7FE
:1008F4001205B6200621787612056D788E120579D8
:10090400120408E47BE87A03F9F81204938F2F8E1B
:100914002E8D2D8C2C8009E4F52FF52EF52DF52C3C
:1009240078AE12056DAB2FAA2EA92DA82CC31205E3
:1009340049701078A012056D7876120579C31205F6
:10094400496061AF2FAE2EAD2DAC2C78AE1205B63A
:10095400787612056D78A01205B6E47B64FAF9F88E
:10096400AF2FAE2EAD2DAC2C1204938E308F31E40C
:100974007B64FAF9F8AF2FAE2EAD2DAC2C12049394
:10098400AE02AF038E328F33753803AB31AA307D9C
:100994000B7F02121A01753802AB33AA327D0F7F26
:0409A40002121A0120
:0109A800222C
:1018BE00789A120579C000787A12056DD00012164A
:1018CE00E078801205B674FFFFFEFDFC78801205ED
:1018DE0079C3120533401AE47F01FEFDFC788012B5
:1018EE000579D3120533500978801205CE00000019
:0418FE0000021C596F
:1014D300121291E55E24D0FFE43407FE789EF6FAFB
:1014E30008EFF6FB788DA65F78A4A66008A661785E
:1014F30084A6627871A6637538047D047F01121A8D
:1015030001788DE6FB7A007538027D097F01121A96
:101513000178A4E6FB7A007538027D0C7F01121A6C
:101523000178A5E6FB7A007538027D047F02121A62
:10153300017884E6FB7A007538027D077F02121A70
:10154300017871E6FB7A007538027D0A7F02021A80
:011553000196
:100EE80078B4E67003760122E478B4F6F52E752F0F
:100EF800007530ACFB7A0079B212107479B3E778D8
:100F0800B866700419E71866604878B2E6FE08E625
:100F1800FF78B7A60608A6077C007D0A120394AAE4
:100F280006AB077538027D077F01121A017B2E7DFB
:100F3800097F01121C2578B2E6FE08E6FF7C007DD9
:100F48000A120394AA04AB057538017D0A7F0112C1
:100F58001A0179ADE778B666700419E71866604833
:100F680078ACE6FE08E6FF78B5A60608A6077C007A
:100F78007D0A120394AA06AB077538027D077F0223
:100F8800121A017B2E7D097F02121C2578ACE6FE21
:100F980008E6FF7C007D0A120394AA04AB057538A5
:090FA800017D0A7F02121A0122E8
:101BC800A2AF9206C2AFAF44AE43AD42AC41A2064B
:021BD80092AFCA
:011BDA0022E8
:08000300121BC878890205B642
:0C1BF900200408D204121C59121C4922BE
:081C4100C204120D4C02000365
:10062000C2B3121C56121B3D7BFF7A18795C7D0108
:100630007F01121A8C7BFF7A1879667D017F021286
:100640001A8CE4FBEBC3940374809480500A7FE817
:100650007E03121BB30B80EC121C517FC012155C81
:10066000EF64AA601F12112DE4FD7F8E1215C17D6B
:10067000AA7FC01215C17D807F8E1215C17FF47EC6
:1006800001121BB3121B9E121A64121B87120E1C3E
:10069000789A1205B6AF25AE24AD23AC2278851228
:1006A00005B6D203E4F521C3E521940A7480948051
:1006B000500F121B878F258E248D238C22052180BD
:1006C000E6121B87120E1C789A1205B6AF25AE24CF
:1006D000AD23AC2278851205B6E4787FF6120D4C76
:1006E000C204AF44AE43AD42AC4178891205B6783E
:0906F0007A12056D78721205B64C
:1006F900854526E5266545700302078E0526121BEA
:10070900078F21EF6463600E300403121C41AF218F
:100719001209A9120003787FE670D8121B5750D32B
:0B0729001211E4120E1C787A1205B6C3
:100734007872120579C000787A12056DD000C3EF83
:100744009BF52AEE9AF529ED99F528EC98F527E41E
:100754007F207E03FDFCAB2AAA29A928A827D3124F
:10076400053350107FE07EFC7DFF7CFFA827C31279
:1007740005335084787A12056D78721205B6300408
:0707840003121C41120003E7
:10078B000206FCE53F6014153F787FE670F53004F8
:10079B00051218BE80ED12080480E8E540601D15B7
:1007AB00402004F7787FE6640170051214D380EBC8
:1007BB00787FE6640270E4120EE880DF30040302F7
:0207CB0006FC2A
:1007CD00121BC88F2A8E298D288C277889120579BE
:1007DD00C3E52A9BFFE5299AFEE52899FDE52798B3
:1007ED00FCE47BF47A01F9F8D312054940030206C3
:0407FD00FC121BF9D6
:030801000206FCF0
:03000B00021624B6
:0F162400C0E0C0D075D000C004C005C006C0072C
:10163300758A00758CDC0545AF44AE43AD42AC41C1
:10164300EF2401F544E43EF543E43DF542E43CF583
:1016530041053D053EC3E53D9414748094804005E7
:10166300753D00053FC3E53E943274809480400588
:05167300753E0005407A
:0D167800D007D006D005D004D0D0D0E0328D
:101B6F00000000010000000A00000064000003E80C
:081B7F0000002710000186A000
:061C0500C2A58F80D2A7EA
:041C0B007F14DFFE65
:011C0F0022B2
:081C2F007F047E92DEFEDFFC63
:011C3700228A
:0A1C1B00C2A6121C05C2A7021C0B92
:101B2300120493E47B0AFAF9F8120493EB2430FFCE
:0A1B3300D2A6121C05C2A7021C0B6B
:101AAF00AE07EEFB7A0064017004ED148009EB645D
:0E1ABF00024A7009ED243F4480FF121C1B22D6
:101B3D007F38121C1B7F0C121C1B7F06121C1B7F77
:0A1B4D0001121C1B121C2FD2A32250
:0A1C2500AC03121AAFAF04021B3328
:061A8C008B348A35893617
:101A9200121AAFE4FEAB34AA35A9368E82758300E2
:0C1AA200120355FF6006121B330E80E992
:011AAE002215
:0419C4008F578D5854
:1019C800E4755D01F55CF55BF55AF559E559C39584
:1019D80058501DAB5DAA5CA95BA85AAF57E4FCFD43
:1019E800FE1204088F5D8E5C8D5B8C5A055980DC75
:0819F800AF5DAE5CAD5BAC5AC3
:011A000022C3
:041A01008A368B375F
:101A0500121AAF853839D3E5399400748094804033
:101A150020AE36AF37E4FCFDE53925E025E0246B43
:101A2500F582E4341BF583120586121B23153980D4
:011A3500D5DB
:011A3600228D
:041685008B828A8347
:10168900121AAFC3E58364809480400D7F2B121B2F
:101699003385834D85824E80107F2D121B33C3E421
:1016A9009582F54EE49583F54D854B4CD3E54C94E5
:1016B9000074809480401FE54C14FD7F0A1219C400
:1016C900A804A905AA06AB07AE4DAF4EE4FCFD126E
:0616D9001B23154C80D616
:0116DF0022E8
:04178A008A678B6877
:10178E00121AAF85696AD3E56A940074809480401A
:10179E003AE56A14FD7F101219C4A804A905AA0619
:1017AE00AB07AE67AF68E4FCFD120493EF540FFF76
:1017BE00AE07EEC3940A74809480EE5004243080F9
:0B17CE00022437FF121B33156A80BB9A
:0117D90022ED
:041946008A6D8B6EAD
:10194A00121AAF856F70D3E570940074809480404A
:10195A002AE57014FD7F021219C4A804A905AA0673
:10196A00AB07AE6DAF6EE4FCFD120493EF5401FFBA
:0B197A00EF2430FF121B33157080CBF0
:01198500223F
:041735008F4F8D50F5
:10173900E4F556E556C395555046C3E5559556FF0C
:10174900E49400FE901B6B75F004EF1205E7EE259B
:10175900E025E02583F583120586AF54AE53AD52DB
:10176900AC51120493E47B0AFAF9F8120493EB24BE
:1017790030FBE5502556FDAF4F121C25055680B3A9
:01178900223D
:040B0D008F088D09B7
:100B1100E4F51DE5106003751D01E4FFFEFDFCAB6E
:100B21000DAA0CA90BA80A12020C400FE510602BAC
:100B31007B2BAD09AF08121C258020E51060097BD5
:100B41002DAD09AF08121C25AF0DAE0CAD0BAC0AD3
:100B51001202858F0D8E0C8D0B8C0AAF0DAE0CAD74
:100B61000BAC0A1202D48F188E178D168C15AF0D8F
:100B7100AE0CAD0BAC0AC004C005C006C007AF186F
:100B8100AE17AD16AC15E4120296A804A905AA0683
:100B9100AB07D007D006D005D0041200118F0D8EFF
:100BA1000C8D0B8C0AAD0F7F0A1219C48F148E1392
:100BB1008D128C11E4120296AB0DAA0CA90BA80A96
:100BC100120106E4FBFA792078411201061202D4DF
:100BD1008F1C8E1B8D1A8C19E51C2405F51CE43520
:100BE1001BF51BE4351AF51AE43519F519AF1CAEDE
:100BF1001BAD1AFCE47B0AFAF9F81204938F1C8EE0
:100C01001B8D1A8C19AB14AA13A912A811120493E3
:100C1100E5182FF518E5173EF517E5163DF516E52C
:100C2100153CF515E509251DFD85185485175385D6
:100C31001652851551850E55AF08121735E5092550
:100C41000E251DFD7B2EAF08121C25E509250E047E
:100C5100251DFD851C54851B53851A528519518507
:070C61000F55AF0802173523
:081C49007F01121C1B021C2F7D
:0D1BEC00EF60047F0E80027F0C121C1B2294
:091C3800EF6003D2A322C2A32233
:06106400011E00011F0047
:10133100E4FFC297C296C295C294D293D292D2913F
:10134100D290309309309206309103209070C29769
:10135100D296D295D2942093027F072092027F08E1
:101361002091027F092090027F0AD297C296D295DE
:10137100D2942093027F042092027F052091027F64
:10138100062090027F0BD297D296C295D2942093D9
:10139100027F012092027F022091027F03209002AE
:1013A1007F0CD297D296D295C2942093027F0E20C1
:0E13B1009202E4FF2091027F0F2090027F0D38
:0113BF00220B
:101B0700121331EF600EB51E09051FE51F64027041
:0B1B170006228000E4F51F8F1E7F6394
:011B220022A0
:09106A00075E1A01050E1E0001CB
:051C5100C2B5C2B6227D
:0315BE0025F0FD18
:0215C100A90778
:1015C300D2B5E4FBEBC394087480948050227E0070
:1015D3007401A803088005C333CE33CED8F9FFE9DD
:1015E300F582EF558224FF92B4D2B6C2B60B80D4F3
:1015F300E4FBEBC394087480948050227E00740152
:10160300A803088005C333CE33CED8F9FFEDF582A6
:10161300EF558224FF92B4D2B6C2B60B80D4C2B5C2
:0116230022A4
:08155400C4540F75F00AA4FC59
:02155C00AD07D9
:10155E00E4F9430501D2B5FBEBC394087480948083
:10156E0050227E007401A803088005C333CE33CE0B
:10157E00D8F9FFEDF582EF558224FF92B4C2B6D2B0
:10158E00B60B80D4D2B4E4FBEBC394087480948081
:10159E005017D2B6C2B630B40DA80374010880023B
:0F15AE00C333D8FC42010B80DFC2B5C2B4AF011A
:0115BD00220B
:10112D00E4FD7F8E1215C1E55E75F00A84C454F09E
:10113D00FFE55E75F00A84EF7F8C1215BEE55F75D5
:10114D00F00A84C454F0FFE55F75F00A84EF7F88E0
:10115D001215BEE56075F00A84C454F0FFE56075A4
:10116D00F00A84EF25F0FD7F861215C1E56175F05B
:10117D000A84C454F0FFE56175F00A84EF25F0FD93
:10118D007F841215C1E56275F00A84C454F0FFE541
:10119D006275F00A84EF25F0FD7F821215C1E563BB
:1011AD0075F00A84C454F0FFE56375F00A84EF25E9
:1011BD00F0FD7F801215C1E56475F00A84C454F00A
:1011CD00FFE56475F00A84EF25F0FD7F8A1215C1E5
:0711DD007D807F8E0215C129
:101291007F8C12155CEF7F8C121554EF540F2CF5D7
:1012A1005E7F8812155CEF7F88121554EF540F2C66
:1012B100F55F7F8612155CEFC4540F75F00AA4FC2C
:1012C1007F8612155CEF540F2CF5607F8412155C3C
:1012D100EFC4540F75F00AA4FC7F8412155CEF541F
:1012E1000F2CF5617F8212155CEFC4540F75F00A63
:1012F100A4FC7F8212155CEF540F2CF5627F8012E3
:10130100155CEFC4540F75F00AA4FC7F8012155CC4
:10131100EF540F2CF5637F8A12155CEFC4540F75DF
:10132100F00AA4FC7F8A12155CEF540F2CF564229D
:031C5600C2A52202
:031C5900C2A522FF
:0B1C1000AE071FEE6004000080F6220B
:021875008F34AE
:10187700AE04AF057C007D641205F3C007AF34AB3F
:1018870007E4FAF9F8D0071204938F388E378D36AC
:101897008C35900000AF82AE83E4FCFDAB38AA37ED
:1018A700A936A835D3120549400AB2A5AF34121C90
:0618B70010A380E1C2A5B0
:0118BD002208
:101ACD00D3EF9400EE940040147D6E7C00ED1D70FC
:0D1ADD00011CED4C70F7EF1F70E61E80E35A
:011AEA0022D9
:061BDB00121BE1121BE1E8
:0B1BE1000000000000000000000022D7
:10198600E4FFFEEEC39408748094805030EF25E0A7
:10199600FFE4FD20A20B0DEDD39464748094804087
:1019A600F2121BDB30A213430701E4FD30A20B0D3C
:0D19B600EDD394647480948040F20E80C6DE
:0119C3002201
:061074008B2B8A2C892D54
:10107A00E4FBD2A200C2A27F14FE121ACDD2A2129F
:10108A001BDB30A20302112B20A20B0BC3EB9464CF
:10109A007480948040F2E4FB30A20B0BC3EB94649F
:1010AA007480948040F2C2AF121986AC0712198676
:1010BA00AB071219868F311219868F32121986A937
:1010CA0007D2AF121BE1D2A2EBFFEC2FFFE433FEF3
:1010DA00E5317583002FFFE5833EFEE5322FFFE5FC
:1010EA00833EFEE96F7001EE7037AF04FEFC7D0AA5
:1010FA00120382AD03EF2DFFEC3EAB2EAA2FA930CF
:10110A008FF01203E9AF317E007D0A120382EF25C8
:10111A0032FFEC3EAB2BAA2CA92D8FF01203E9D398
:02112A0022C3DE
:01112C0022A0
:031C5C00D2A222EF
:10000E00020340E86480F8E933E83360110460F0DD
:10001E00ED33EC337009E8FCE9FDEAFEEBFF220458
:10002E0060DED3EB9FEA9EE99DE8C2E78CF0C2F753
:10003E0095F0400CE8CCF8E9CDF9EACEFAEBCFFB1F
:10004E0012030B85D0F05804700320D5B3E804706A
:10005E00075002B2D502034A92D5EC0460F7E4CC05
:10006E00C0E0C398F8603B94186008400DD0E0FBE8
:10007E00020322E4FBFAC9FC8028E830E406E4C956
:10008E00FBE4CAFCE830E305E4C9CACBFCE854073C
:10009E006010F8C3E913F9EA13FAEB13FBEC13FC47
:1000AE00D8F130F52FC3E49CFCEF9BFFEE9AFEEDEA
:1000BE0099FDD0E0FBEF4E4D4C701222DB03020394
:1000CE0047EC2CFCEF33FFEE33FEED33FDED30E766
:1000DE00EB020322EF2BFFEE3AFEED39FDD0E0FBF3
:1000EE0050130BBB000302034AED13FDEE13FEEF9C
:0800FE0013FFEC13FC020322C6
:10010600EC4D6011E8497017ED33EC3304600DE4F3
:10011600FCFFFEFD22E933E8330470F802034012C7
:10012600030B58046009E4CC2481500628500902C8
:10013600034A284003020347C0E0EB4A7044B980F3
:1001460006D0E0FB020336EF4E701CBD8008EBFFC5
:10015600EAFEE9FD80EBE98DF0A4FEE5F00201EF91
:10016600E9CDF9EAFEEBFFEF89F0A4FCE5F0CE89D4
:10017600F0A42EFFE435F0CD89F0A42DFEE435F091
:100186008067EF4E7005BD80D780C3EF8BF0A4ACBF
:10019600F0EE8BF0A42CFCE435F0F8EF8AF0A42CFA
:1001A600E5F038FCE433CB8DF0A42CFCE5F03BF80D
:1001B600EE8AF0A42CFCE5F038F8E433CF89F0A4FD
:1001C6002CFCE5F038CF3400CE89F0A42FFFE5F003
:1001D6003EFEE433C98DF0A42EFEE5F039CD8AF05B
:1001E600A42FFFE5F03EFEE43DFD33D0E0FB5007D3
:1001F6000BBB000F02034AEC2CFCEF33FFEE33FE81
:06020600ED33FD020322AE
:10020C0074F8CC6480CCC86480C8F58204604FC399
:10021C00EB9FF5F0EA9E42F0E99D42F0E89C45F038
:10022C00603C501DE5825FFFE582D313CB5BCBF4C2
:10023C002B5582FB50280ABA002409B900200880EB
:10024C001DE5825BFBE582D313CF5FCFF4C3132F85
:10025C005582FF50090EBE00050DBD00010CC3EB0D
:10026C009FF5F0EA9E42F0E99D42F0E89C45F06073
:09027C0007CC4820E701B3EC2295
:10028500ED33EC33600A047003BD8004ECB2E7FC87
:010295002246
:1002960075F020800E75F010800575F0087D007EE3
:1002A600007F003392D530D503120525EC3340107C
:1002B600EF33FFEE33FEED33FDEC33FCD5F0ED22EC
:0E02C600E5F0247EA2D513CC92E7CDCEFF2228
:1002D400EDD2E7CD33EC3392D524814006E4FFFE22
:1002E400FDFC22FCE4CFCECDCC24E0501174FF8081
:1002F400EDC3CC13CCCD13CDCE13CECF13CF04701E
:07030400F030D5DE020525F3
:10030B00E9D2E7C933E833F892D5EDD2E7CD33EC38
:07031B0033FC5002B2D522B1
:10032200EC30E7100FBF000C0EBE00080DBD00043C
:100332000BEB6014A2D5EB13FCED92E7FD2274FFE8
:10034200FCFDFEFF22E480F8A2D574FF13FC7D8041
:03035200E480EF55
:030000000213C028
:0C13C000787FE4F6D8FD7581B8021407B0
:10035500BB010CE58229F582E5833AF583E022505D
:1003650006E92582F8E622BBFE06E92582F8E222A7
:0D037500E58229F582E5833AF583E49322C1
:10038200EF8DF0A4A8F0CF8CF0A428CE8DF0A42E8F
:02039200FE2249
:10039400BC000BBE0029EF8DF084FFADF022E4CC4D
:1003A400F875F008EF2FFFEE33FEEC33FCEE9DEC16
:1003B400984005FCEE9DFE0FD5F0E9E4CEFD22ED5C
:1003C400F8F5F0EE8420D21CFEADF075F008EF2FA6
:1003D400FFED33FD4007985006D5F0F222C398FD97
:0503E4000FD5F0EA2234
:1003E900BB010A89828A83F0E5F0A3F0225006F75F
:0F03F90009A7F01922BBFE06F3E5F009F319225C
:10040800E88FF0A4CC8BF0A42CFCE98EF0A42CFC93
:100418008AF0EDA42CFCEA8EF0A4CDA8F08BF0A411
:100428002DCC3825F0FDE98FF0A42CCD35F0FCEB70
:100438008EF0A4FEA9F0EB8FF0A4CFC5F02ECD3935
:0F044800FEE43CFCEAA42DCE35F0FDE43CFC22A2
:1004570075F008758200EF2FFFEE33FECD33CDCC5C
:1004670033CCC58233C5829BED9AEC99E5829840DF
:100477000CF582EE9BFEED9AFDEC99FC0FD5F0D6BC
:10048700E4CEFBE4CDFAE4CCF9A88222B800C1B9E6
:100497000059BA002DEC8BF084CFCECDFCE5F0CB24
:1004A700F97818EF2FFFEE33FEED33FDEC33FCEB5D
:1004B70033FB10D703994004EB99FB0FD8E5E4F918
:1004C700FA227818EF2FFFEE33FEED33FDEC33FC05
:1004D700C933C910D7059BE99A4007EC9BFCE99AF9
:1004E700F90FD8E0E4C9FAE4CCFB2275F010EF2F3E
:1004F700FFEE33FEED33FDCC33CCC833C810D7073E
:100507009BEC9AE899400AED9BFDEC9AFCE899F878
:0E0517000FD5F0DAE4CDFBE4CCFAE4C8F9220B
:10190200C2D5E830E70FB2D5E4C39BFBE49AFAE410
:1019120099F9E498F8EC30E717B2D51219381204A5
:1019220093E4C39BFBE49AFAE499F9E498F8800300
:1019320012049330D50DE4C39FFFE49EFEE49DFDA7
:04194200E49CFC2203
:0E052500C3E49FFFE49EFEE49DFDE49CFC22E7
:10053300EB9FF5F0EA9E42F0E99D42F0EC6480C83F
:0605430064809845F022DF
:10054900EB9FF5F0EA9E42F0E99D42F0E89C45F008
:01055900227F
:10055A00E8600FEFC333FFEE33FEED33FDEC33FCFF
:03056A00D8F122A3
:0C056D00E6FC08E6FD08E6FE08E6FF22BA
:0D057900E6FB08E6F908E6FA08E6CBF822F2
:10058600E493F8740193F9740293FA740393FB22CB
:100596007401FF3395E0FEFDFC080808E6CF2FF650
:1005A60018E6CE3EF618E6CD3DF618E6CC3CF62229
:0C05B600ECF608EDF608EEF608EFF62271
:0C05C200ECF0A3EDF0A3EEF0A3EFF022AC
:1005CE00D083D082E493F608740193F608740293F4
:0905DE00F608740393F67404732B
:0C05E700A42582F582E5F03583F583221F
:1005F300EC8EF0A4CCC5F0CCCDF8EFA4CEC5F02D95
:10060300FDE43CFCE8A42EC8C5F03DFDE43CFCEF52
:0D061300A4FFE5F028FEE43DFDE43CFC22E0
:1013CC00020620E493A3F8E493A34003F68001F211
:1013DC0008DFF48029E493A3F85407240CC8C33322
:1013EC00C4540F4420C8834004F456800146F6DFF1
:1013FC00E4800B0102040810204080900FB1E47EC1
:10140C00019360BCA3FF543F30E509541FFEE493E5
:10141C00A360010ECF54C025E060A840B8E493A3AC
:10142C00FAE493A3F8E493A3C8C582C8CAC583CAD7
:10143C00F0A3C8C582C8CAC583CADFE9DEE780BE8F
:01107300007C
:00000001FF
